10900033371SUMIMEDICAL LTDA225REZAGOPRIM180627A18062700001000000000000000001420830634440167402D
6000000073163710REYES VIDES INGMAR00560007800000050467740763S370001470750
6000001032372417Carolina Escorcia 00560007800000003255884262S370001721323
6000001128437429ANDRES ZUÑIGA MON00560007800000027521148841S370001721323
6000001128396958ANGELA MARIA DAVID00560007800000023671236521S370001961000
6000001037619574CATALINA ARANGO   00560007800000024585933623S370000625000
6000001066520600CARMEN JULIA RUIZ 00560007800000021883088651S370000633785
6000001020430709Angie Bravo       00560007800000031027978498S370001961000
6000001032384743DAvid Machado     00560007800000001717825965S370001961000
6000001152700896JUAN  ALVAREZ     00560007800000036066911530S370000169167
6000000071617960DAVID GUERRA      00560007800000010032779474S370001983958

